{
    "contractName": "TaskElection",
    "abi": [
        {
            "inputs": [
                {
                    "internalType": "address",
                    "name": "_tkfTokenAddress",
                    "type": "address"
                }
            ],
            "stateMutability": "nonpayable",
            "type": "constructor"
        },
        {
            "inputs": [
                {
                    "internalType": "uint256",
                    "name": "_electionId",
                    "type": "uint256"
                },
                {
                    "internalType": "string",
                    "name": "_title",
                    "type": "string"
                }
            ],
            "name": "addCandidate",
            "outputs": [],
            "stateMutability": "nonpayable",
            "type": "function"
        },
        {
            "inputs": [
                {
                    "internalType": "uint256",
                    "name": "",
                    "type": "uint256"
                },
                {
                    "internalType": "uint256",
                    "name": "",
                    "type": "uint256"
                }
            ],
            "name": "candidates",
            "outputs": [
                {
                    "internalType": "string",
                    "name": "title",
                    "type": "string"
                },
                {
                    "internalType": "uint256",
                    "name": "numVotes",
                    "type": "uint256"
                },
                {
                    "internalType": "uint256",
                    "name": "totalStakes",
                    "type": "uint256"
                }
            ],
            "stateMutability": "view",
            "type": "function"
        },
        {
            "inputs": [
                {
                    "internalType": "uint256",
                    "name": "_electionId",
                    "type": "uint256"
                },
                {
                    "internalType": "uint256",
                    "name": "_candidateId",
                    "type": "uint256"
                },
                {
                    "internalType": "uint256",
                    "name": "_stake",
                    "type": "uint256"
                }
            ],
            "name": "castVote",
            "outputs": [],
            "stateMutability": "nonpayable",
            "type": "function"
        },
        {
            "inputs": [
                {
                    "internalType": "string",
                    "name": "_picture",
                    "type": "string"
                },
                {
                    "internalType": "string",
                    "name": "_title",
                    "type": "string"
                },
                {
                    "internalType": "string",
                    "name": "_description",
                    "type": "string"
                },
                {
                    "internalType": "uint256",
                    "name": "_reward",
                    "type": "uint256"
                }
            ],
            "name": "createElection",
            "outputs": [],
            "stateMutability": "nonpayable",
            "type": "function"
        },
        {
            "inputs": [
                {
                    "internalType": "uint256",
                    "name": "",
                    "type": "uint256"
                }
            ],
            "name": "elections",
            "outputs": [
                {
                    "internalType": "uint256",
                    "name": "id",
                    "type": "uint256"
                },
                {
                    "internalType": "string",
                    "name": "picture",
                    "type": "string"
                },
                {
                    "internalType": "string",
                    "name": "title",
                    "type": "string"
                },
                {
                    "internalType": "string",
                    "name": "description",
                    "type": "string"
                },
                {
                    "internalType": "address",
                    "name": "author",
                    "type": "address"
                },
                {
                    "internalType": "enum TaskElection.ElectionState",
                    "name": "state",
                    "type": "uint8"
                },
                {
                    "internalType": "uint256",
                    "name": "reward",
                    "type": "uint256"
                },
                {
                    "internalType": "uint256",
                    "name": "numCandidates",
                    "type": "uint256"
                },
                {
                    "internalType": "uint256",
                    "name": "numVoters",
                    "type": "uint256"
                },
                {
                    "internalType": "uint256",
                    "name": "winningCandidateId",
                    "type": "uint256"
                }
            ],
            "stateMutability": "view",
            "type": "function"
        },
        {
            "inputs": [
                {
                    "internalType": "uint256",
                    "name": "_electionId",
                    "type": "uint256"
                }
            ],
            "name": "finalizeElection",
            "outputs": [],
            "stateMutability": "nonpayable",
            "type": "function"
        },
        {
            "inputs": [
                {
                    "internalType": "uint256",
                    "name": "_electionId",
                    "type": "uint256"
                }
            ],
            "name": "getMyVote",
            "outputs": [
                {
                    "components": [
                        {
                            "internalType": "uint256",
                            "name": "stake",
                            "type": "uint256"
                        },
                        {
                            "internalType": "uint256",
                            "name": "candidateId",
                            "type": "uint256"
                        }
                    ],
                    "internalType": "struct TaskElection.Vote",
                    "name": "",
                    "type": "tuple"
                }
            ],
            "stateMutability": "view",
            "type": "function"
        },
        {
            "inputs": [],
            "name": "numElections",
            "outputs": [
                {
                    "internalType": "uint256",
                    "name": "",
                    "type": "uint256"
                }
            ],
            "stateMutability": "view",
            "type": "function"
        },
        {
            "inputs": [],
            "name": "owner",
            "outputs": [
                {
                    "internalType": "address",
                    "name": "",
                    "type": "address"
                }
            ],
            "stateMutability": "view",
            "type": "function"
        },
        {
            "inputs": [],
            "name": "tkfToken",
            "outputs": [
                {
                    "internalType": "contract TKFToken",
                    "name": "",
                    "type": "address"
                }
            ],
            "stateMutability": "view",
            "type": "function"
        },
        {
            "inputs": [
                {
                    "internalType": "uint256",
                    "name": "",
                    "type": "uint256"
                },
                {
                    "internalType": "address",
                    "name": "",
                    "type": "address"
                }
            ],
            "name": "voted",
            "outputs": [
                {
                    "internalType": "bool",
                    "name": "",
                    "type": "bool"
                }
            ],
            "stateMutability": "view",
            "type": "function"
        },
        {
            "inputs": [
                {
                    "internalType": "uint256",
                    "name": "",
                    "type": "uint256"
                },
                {
                    "internalType": "uint256",
                    "name": "",
                    "type": "uint256"
                }
            ],
            "name": "voters",
            "outputs": [
                {
                    "internalType": "address",
                    "name": "",
                    "type": "address"
                }
            ],
            "stateMutability": "view",
            "type": "function"
        },
        {
            "inputs": [
                {
                    "internalType": "uint256",
                    "name": "",
                    "type": "uint256"
                },
                {
                    "internalType": "address",
                    "name": "",
                    "type": "address"
                }
            ],
            "name": "votes",
            "outputs": [
                {
                    "internalType": "uint256",
                    "name": "stake",
                    "type": "uint256"
                },
                {
                    "internalType": "uint256",
                    "name": "candidateId",
                    "type": "uint256"
                }
            ],
            "stateMutability": "view",
            "type": "function"
        }
    ],
    "bytecode": "608060405234801561001057600080fd5b5060405161187538038061187583398101604081905261002f91610062565b60068054336001600160a01b031991821617909155600780549091166001600160a01b0392909216919091179055610092565b60006020828403121561007457600080fd5b81516001600160a01b038116811461008b57600080fd5b9392505050565b6117d4806100a16000396000f3fe608060405234801561001057600080fd5b50600436106100cf5760003560e01c80637de142421161008c578063b78a217511610066578063b78a2175146101ef578063d23254b414610202578063f76b404914610246578063fba00cbd1461027457600080fd5b80637de142421461018f5780638441bb44146101b15780638da5cb5b146101dc57600080fd5b80631537052e146100d45780631750a3d0146100e95780635277b4ae146100fc5780635be5e3ec1461013c5780635e6fef011461014f5780636e38d9bd14610178575b600080fd5b6100e76100e23660046111d7565b610287565b005b6100e76100f7366004611293565b61055b565b61012761010a3660046112da565b600060208181529281526040808220909352908152205460ff1681565b60405190151581526020015b60405180910390f35b6100e761014a366004611316565b61066d565b61016261015d3660046111d7565b610a70565b6040516101339a9998979695949392919061139e565b61018160045481565b604051908152602001610133565b6101a261019d36600461143e565b610c67565b60405161013393929190611460565b6007546101c4906001600160a01b031681565b6040516001600160a01b039091168152602001610133565b6006546101c4906001600160a01b031681565b6100e76101fd366004611485565b610d36565b6102316102103660046112da565b60016020818152600093845260408085209091529183529120805491015482565b60408051928352602083019190915201610133565b6102596102543660046111d7565b610eec565b60408051825181526020928301519281019290925201610133565b6101c461028236600461143e565b610fde565b60008181526005602052604090206004015481906001600160a01b031633146102cb5760405162461bcd60e51b81526004016102c290611515565b60405180910390fd5b8160008082815260056020526040902060040154600160a01b900460ff1660028111156102fa576102fa611388565b146103175760405162461bcd60e51b81526004016102c290611557565b60008381526005602081815260408084209092015460038252828420546002909252919092205490919061034a86611016565b6000868152600560205260408120600401805460ff60a01b1916600160a01b179055805b828110156103c757600088815260026020526040902080548290811061039657610396611583565b906000526020600020906003020160020154826103b391906115af565b9150806103bf816115c8565b91505061036e565b5060006103d482866115af565b905060005b848110156105505760008981526001602090815260408083206003909252822080548391908590811061040e5761040e611583565b60009182526020808320909101546001600160a01b0316835282810193909352604091820181208251808401845281548152600191909101548185019081528e835260059094529190206008015491519092500361053d5760075460008b815260036020526040902080546001600160a01b039092169163a9059cbb91908590811061049c5761049c611583565b60009182526020909120015483516001600160a01b039091169087906104c290886115e1565b6104cc91906115f8565b6040516001600160e01b031960e085901b1681526001600160a01b03909216600483015260248201526044016020604051808303816000875af1158015610517573d6000803e3d6000fd5b505050506040513d601f19601f8201168201806040525081019061053b919061161a565b505b5080610548816115c8565b9150506103d9565b505050505050505050565b60008281526005602052604090206004015482906001600160a01b031633146105965760405162461bcd60e51b81526004016102c290611515565b8260008082815260056020526040902060040154600160a01b900460ff1660028111156105c5576105c5611388565b146105e25760405162461bcd60e51b81526004016102c290611557565b60008481526005602052604081206006018054916105ff836115c8565b909155505060008481526002602090815260408083208151606081018352878152808401859052918201849052805460018101825590845291909220825160039092020190819061065090826116c5565b506020820151816001015560408201518160020155505050505050565b8260008082815260056020526040902060040154600160a01b900460ff16600281111561069c5761069c611388565b146106b95760405162461bcd60e51b81526004016102c290611557565b6000848152600560205260409020600401546001600160a01b031633036107165760405162461bcd60e51b8152602060048201526011602482015270417574686f722063616e277420766f746560781b60448201526064016102c2565b60008481526020818152604080832033845290915290205460ff161561076e5760405162461bcd60e51b815260206004820152600d60248201526c105b1c9958591e481d9bdd1959609a1b60448201526064016102c2565b60008481526005602052604090206006015483106107c55760405162461bcd60e51b8152602060048201526014602482015273125b9d985b1a590818d85b991a59185d19481a5960621b60448201526064016102c2565b600082116108155760405162461bcd60e51b815260206004820152601c60248201527f5374616b65206d7573742062652067726561746572207468616e20300000000060448201526064016102c2565b6007546040516370a0823160e01b815233600482015283916001600160a01b0316906370a0823190602401602060405180830381865afa15801561085d573d6000803e3d6000fd5b505050506040513d601f19601f820116820180604052508101906108819190611785565b10156108c75760405162461bcd60e51b81526020600482015260156024820152744e6f7420656e6f75676820544b4620746f6b656e7360581b60448201526064016102c2565b60008481526020818152604080832033808552908352818420805460ff19166001908117909155888552600384528285208054918201815585528385200180546001600160a01b03191690911790558683526005909152812060070180549161092f836115c8565b9091555050600084815260026020526040902080548490811061095457610954611583565b600091825260208220600160039092020101805491610972836115c8565b9091555050600084815260026020526040902080548391908590811061099a5761099a611583565b906000526020600020906003020160020160008282546109ba91906115af565b90915550506007546040516323b872dd60e01b8152336004820152306024820152604481018490526001600160a01b03909116906323b872dd906064016020604051808303816000875af1158015610a16573d6000803e3d6000fd5b505050506040513d601f19601f82011682018060405250810190610a3a919061161a565b50506040805180820182529182526020808301938452600094855260018082528286203387529091529320905181559051910155565b60056020526000908152604090208054600182018054919291610a9290611643565b80601f0160208091040260200160405190810160405280929190818152602001828054610abe90611643565b8015610b0b5780601f10610ae057610100808354040283529160200191610b0b565b820191906000526020600020905b815481529060010190602001808311610aee57829003601f168201915b505050505090806002018054610b2090611643565b80601f0160208091040260200160405190810160405280929190818152602001828054610b4c90611643565b8015610b995780601f10610b6e57610100808354040283529160200191610b99565b820191906000526020600020905b815481529060010190602001808311610b7c57829003601f168201915b505050505090806003018054610bae90611643565b80601f0160208091040260200160405190810160405280929190818152602001828054610bda90611643565b8015610c275780601f10610bfc57610100808354040283529160200191610c27565b820191906000526020600020905b815481529060010190602001808311610c0a57829003601f168201915b50505050600483015460058401546006850154600786015460089096015494956001600160a01b03841695600160a01b90940460ff16945091929091908a565b60026020528160005260406000208181548110610c8357600080fd5b906000526020600020906003020160009150915050806000018054610ca790611643565b80601f0160208091040260200160405190810160405280929190818152602001828054610cd390611643565b8015610d205780601f10610cf557610100808354040283529160200191610d20565b820191906000526020600020905b815481529060010190602001808311610d0357829003601f168201915b5050505050908060010154908060020154905083565b6007546040516323b872dd60e01b8152336004820152306024820152604481018390526001600160a01b03909116906323b872dd906064016020604051808303816000875af1158015610d8d573d6000803e3d6000fd5b505050506040513d601f19601f82011682018060405250810190610db1919061161a565b50600480549081906000610dc4836115c8565b90915550506040805161014081018252828152602080820188815282840188905260608301879052336080840152600060a0840181905260c0840187905260e084018190526101008401819052610120840181905285815260059092529290208151815591519091906001820190610e3c90826116c5565b5060408201516002820190610e5190826116c5565b5060608201516003820190610e6690826116c5565b5060808201516004820180546001600160a01b039092166001600160a01b031983168117825560a0850151926001600160a81b03191617600160a01b836002811115610eb457610eb4611388565b021790555060c0820151600582015560e082015160068201556101008201516007820155610120909101516008909101555050505050565b60408051808201909152600080825260208201528160008082815260056020526040902060040154600160a01b900460ff166002811115610f2f57610f2f611388565b14610f4c5760405162461bcd60e51b81526004016102c290611557565b60008381526020818152604080832033845290915290205460ff16610fa75760405162461bcd60e51b8152602060048201526011602482015270165bdd481a185d995b89dd081d9bdd1959607a1b60448201526064016102c2565b6000838152600160208181526040808420338552825292839020835180850190945280548452909101549082015291505b50919050565b60036020528160005260406000208181548110610ffa57600080fd5b6000918252602090912001546001600160a01b03169150829050565b8060008082815260056020526040902060040154600160a01b900460ff16600281111561104557611045611388565b146110625760405162461bcd60e51b81526004016102c290611557565b60005b6000838152600560205260409020600601548110156111d257600083815260026020526040812080548390811061109e5761109e611583565b90600052602060002090600302016040518060600160405290816000820180546110c790611643565b80601f01602080910402602001604051908101604052809291908181526020018280546110f390611643565b80156111405780601f1061111557610100808354040283529160200191611140565b820191906000526020600020905b81548152906001019060200180831161112357829003601f168201915b505050918352505060018201546020808301919091526002928301546040928301526000888152928152818320600590915291206008015481549293509091811061118d5761118d611583565b906000526020600020906003020160020154816040015111156111bf5760008481526005602052604090206008018290555b50806111ca816115c8565b915050611065565b505050565b6000602082840312156111e957600080fd5b5035919050565b634e487b7160e01b600052604160045260246000fd5b600082601f83011261121757600080fd5b813567ffffffffffffffff80821115611232576112326111f0565b604051601f8301601f19908116603f0116810190828211818310171561125a5761125a6111f0565b8160405283815286602085880101111561127357600080fd5b836020870160208301376000602085830101528094505050505092915050565b600080604083850312156112a657600080fd5b82359150602083013567ffffffffffffffff8111156112c457600080fd5b6112d085828601611206565b9150509250929050565b600080604083850312156112ed57600080fd5b8235915060208301356001600160a01b038116811461130b57600080fd5b809150509250929050565b60008060006060848603121561132b57600080fd5b505081359360208301359350604090920135919050565b6000815180845260005b818110156113685760208185018101518683018201520161134c565b506000602082860101526020601f19601f83011685010191505092915050565b634e487b7160e01b600052602160045260246000fd5b60006101408c83528060208401526113b88184018d611342565b905082810360408401526113cc818c611342565b905082810360608401526113e0818b611342565b6001600160a01b038a1660808501529150506003871061141057634e487b7160e01b600052602160045260246000fd5b60a082019690965260c081019490945260e08401929092526101008301526101209091015295945050505050565b6000806040838503121561145157600080fd5b50508035926020909101359150565b6060815260006114736060830186611342565b60208301949094525060400152919050565b6000806000806080858703121561149b57600080fd5b843567ffffffffffffffff808211156114b357600080fd5b6114bf88838901611206565b955060208701359150808211156114d557600080fd5b6114e188838901611206565b945060408701359150808211156114f757600080fd5b5061150487828801611206565b949793965093946060013593505050565b60208082526022908201527f4f6e6c7920617574686f722063616e2063616c6c20746869732066756e63746960408201526137b760f11b606082015260800190565b602080825260129082015271115b1958dd1a5bdb881a5cc818db1bdcd95960721b604082015260600190565b634e487b7160e01b600052603260045260246000fd5b634e487b7160e01b600052601160045260246000fd5b808201808211156115c2576115c2611599565b92915050565b6000600182016115da576115da611599565b5060010190565b80820281158282048414176115c2576115c2611599565b60008261161557634e487b7160e01b600052601260045260246000fd5b500490565b60006020828403121561162c57600080fd5b8151801515811461163c57600080fd5b9392505050565b600181811c9082168061165757607f821691505b602082108103610fd857634e487b7160e01b600052602260045260246000fd5b601f8211156111d257600081815260208120601f850160051c8101602086101561169e5750805b601f850160051c820191505b818110156116bd578281556001016116aa565b505050505050565b815167ffffffffffffffff8111156116df576116df6111f0565b6116f3816116ed8454611643565b84611677565b602080601f83116001811461172857600084156117105750858301515b600019600386901b1c1916600185901b1785556116bd565b600085815260208120601f198616915b8281101561175757888601518255948401946001909101908401611738565b50858210156117755787850151600019600388901b60f8161c191681555b5050505050600190811b01905550565b60006020828403121561179757600080fd5b505191905056fea264697066735822122025907532ae56925cc183630ad2617f3c6b2a5daf51151fefcfa24637ca28c04d64736f6c63430008130033",
    "sourcePath": "d:/github/taskify-contract/contracts/TaskElection.sol",
    "compiler": {
        "name": "solc",
        "version": "0.8.19+commit.7dd6d404"
    },
    "functionHashes": {
        "addCandidate(uint256,string)": "1750a3d0",
        "candidates(uint256,uint256)": "7de14242",
        "castVote(uint256,uint256,uint256)": "5be5e3ec",
        "createElection(string,string,string,uint256)": "b78a2175",
        "elections(uint256)": "5e6fef01",
        "finalizeElection(uint256)": "1537052e",
        "getMyVote(uint256)": "f76b4049",
        "numElections()": "6e38d9bd",
        "owner()": "8da5cb5b",
        "tkfToken()": "8441bb44",
        "voted(uint256,address)": "5277b4ae",
        "voters(uint256,uint256)": "fba00cbd",
        "votes(uint256,address)": "d23254b4"
    },
    "gasEstimates": {
        "creation": {
            "codeDepositCost": "1220000",
            "executionCost": "infinite",
            "totalCost": "infinite"
        },
        "external": {
            "addCandidate(uint256,string)": "infinite",
            "candidates(uint256,uint256)": "infinite",
            "castVote(uint256,uint256,uint256)": "infinite",
            "createElection(string,string,string,uint256)": "infinite",
            "elections(uint256)": "infinite",
            "finalizeElection(uint256)": "infinite",
            "getMyVote(uint256)": "9366",
            "numElections()": "2406",
            "owner()": "2404",
            "tkfToken()": "2382",
            "voted(uint256,address)": "2627",
            "voters(uint256,uint256)": "4793",
            "votes(uint256,address)": "4764"
        },
        "internal": {
            "computeResult(uint256)": "infinite"
        }
    }
}